S018000070757474696E67546F676574686572312E737265638E
S11300000C943C000C9446000C9446000C9446005E
S11300100C9446000C9446000C9446000C94460044
S11300200C9446000C9446000C9446000C94460034
S11300300C9446000C9446000C9446000C94460024
S11300400C9446000C9446000C9446000C94460014
S11300500C9446009401BA01BA01BA018D019B01C6
S1130060A901A201B001BA01BA01BA01BA01BA01E7
S1130070BA01BA01BA01B70111241FBECFE5D8E015
S1130080DEBFCDBF0E9452010C9470080C94000096
S11300908F929F92AF92BF92CF92DF92EF92FF9294
S11300A06B017C0149015A010E942507862F0E9499
S11300B0DC05A7019601C501B4010E9407080E944E
S11300C02507862F0E94110681E00E94A30081E08B
S11300D00E94AD00FF90EF90DF90CF90BF90AF9063
S11300E09F908F9008958F929F92AF92BF92CF92DC
S11300F0DF92EF92FF926B017C0149015A010E9449
S11301002507862F0E941106A5019401C701B60197
S11301100E9407080E942507862F0E94DC0581E0C3
S11301200E94AD0081E00E94A300FF90EF90DF9059
S1130130CF90BF90AF909F908F900895D09AD19A0E
S1130140D29AD39A0895813019F4D898D99A0895F7
S1130150811102C0D89AD9980895813019F4DA9897
S1130160DB9A0895811102C0DA9ADB9808950E94FF
S1130170C3050E94F8050E949E0060E875E280E0D5
S113018090E00E942D0608958F929F92AF92BF92A5
S1130190CF92DF92EF92FF92CF934B015C0160E02C
S11301A070E084EB92E40E949E0420E030E0A90118
S11301B0C501B4010E940308181604F580E0C12C9F
S11301C0D12C7601C9B3C5FBCC27C0F98C1761F0DB
S11301D081110AC02FE832EC45E75DE3C701B6019F
S11301E00E9455066B017C01A5019401C701B6016B
S11301F00E94B906882314F48C2FE4CF0E94BC0516
S1130200CF91FF90EF90DF90CF90BF90AF909F90F1
S11302108F9008958F929F92AF92BF92CF92DF9268
S1130220EF92FF92CF934B015C0120E041E060E04C
S113023070E080E792E40E94A40520E030E0A90188
S1130240C501B4010E940308181604F580E0C12C0E
S1130250D12C7601C9B3C5FBCC27C0F98C1761F04A
S113026081110AC020E030E048E152E4C701B60140
S11302700E9455066B017C01A5019401C701B601DA
S11302800E94B906882314F48C2FE4CF0E94BC0585
S1130290CF91FF90EF90DF90CF90BF90AF909F9061
S11302A08F900895CF93DF93CDB7DEB7A4970FB6A1
S11302B0F894DEBF0FBECDBF0E94B7000E94500667
S11302C0182F0F2EFFE84F2EF2EC5F2EF5E76F2E5E
S11302D0FDE37F2EF02D0F2EC12CD12CF0E7EF2E55
S11302E0F2E4FF2EF02D22242394322C123309F44D
S11302F045C0133309F4D2C01133C1F70E9450062C
S1130300B82E482F50E0FA01E254F109E231F10528
S113031088F5E65DFF4F0C946A0860E070E084EBBA
S113032092E40E949E0427C060E070E084EB92E4B3
S11303300E94B00420C060E070E084EB92E40E946C
S1130340100519C060E070E084EB92E40E94C204DE
S113035012C060E070E084EB92E40E9481050BC05F
S113036060E070E084EB92E40E945E0504C00E94A9
S1130370BC0501C01B2D1B11C1CFB8CF0E94BC0509
S11303808E988D988C9886E48CA380E090E0A4E30A
S1130390B2E48D8F9E8FAF8FB8A38DEC9CECACEC48
S11303A0BDE3898F9A8FAB8FBC8F0F2EF6E4FF2E9F
S11303B0F02D07E419E4849904C0869902C0859B52
S11303C006C085990BC0849B09C0869B07C0FCA20C
S11303D06D8D7E8D8F8D98A10E949E04859904C099
S11303E0869902C0849906C0859B0FC086990DC06A
S11303F0849B0BC00CA3298D3A8D4B8D5C8D6D8D28
S11304007E8D8F8D98A10E947300859904C0849974
S113041002C0869906C0859B0FC084990DC0869B37
S11304200BC01CA3298D3A8D4B8D5C8D6D8D7E8DFB
S11304308F8D98A10E944800859B05C0849903C0B4
S1130440869B0E94BC05849BB6CF869BB4CF859BBC
S1130450B2CF8CA1863431F46D8D7E8D8F8D98A1B1
S11304600E949E048CA1873451F4298D3A8D4B8DC2
S11304705C8D6D8D7E8D8F8D98A10E9473008CA1F3
S1130480893409F098CF298D3A8D4B8D5C8D6D8D13
S11304907E8D8F8D98A10E9448008DCF0E94BC054F
S11304A0D5981D8A1E8A1F8A188E198A1A8A1B8A51
S11304B01C8A1BA24D865E866F86788A19861A86E8
S11304C01B861C861D821E821F821886C982DA82C0
S11304D0EB82FC8219A20E945006082F023409F410
S11304E09AC038F40F3209F421C2013409F41FC14F
S11304F021C2043421F0083409F495C11BC20E94BE
S1130500500689A389A1803380F189A18A3368F5D3
S11305106D897E898F89988D20E030E040E251E436
S11305200E9407086D8B7E8B8F8B988F69A18D88B5
S11305309E88AF88B88C70E060537109882777FD76
S11305408095982F0E945307A50194010E94550697
S11305506D8B7E8B8F8B988F0E94500689A389A107
S1130560803318F089A18A3398F209A160E070E021
S113057084EB92E40E949E046D897E898F89988D14
S113058089889A88AB88BC8820E030E048EC52E443
S11305900E94BD06A50194010E940308181684F563
S11305A0CD9B02C03AA201C01AA29AA18BA19817AE
S11305B089F08BA181110EC069897A898B899C8904
S11305C02D853E854F8558890E945506698B7A8B07
S11305D08B8B9C8B8AA18BA36D897E898F89988D47
S11305E089889A88AB88BC8820E030E048EC52E4E3
S11305F00E94BD06A50194010E940308181684F206
S1130600198A1A8A1B8A1C8A1D8A1E8A1F8A188EB6
S11306100E94BC0590C10E94500689A389A1803321
S113062080F189A18A3368F56D897E898F89988DD7
S113063020E030E040E251E40E9407086D8B7E8B9D
S11306408F8B988F69A18D889E88AF88B88C70E055
S113065060537109882777FD8095982F0E9453076E
S1130660A50194010E9455066D8B7E8B8F8B988F0C
S11306700E94500689A389A1803318F089A18A3386
S113068098F209A160E070E084EB92E40E94B00467
S11306906D897E898F89988D89889A88AB88BC8872
S11306A020E030E048EC52E40E94BD06A50194012C
S11306B00E940308181684F5CD9B02C03AA201C01B
S11306C01AA29AA18BA1981789F08BA181110EC04F
S11306D069897A898B899C892D853E854F855889BE
S11306E00E945506698B7A8B8B8B9C8B8AA18BA37A
S11306F06D897E898F89988D89889A88AB88BC8812
S113070020E030E048EC52E40E94BD06A5019401CB
S11307100E940308181684F2198A1A8A1B8A1C8AF2
S11307201D8A1E8A1F8A188E0E94BC0504C10E945D
S1130730500689A389A1803380F189A18A3368F5A1
S113074069857A858B859C8520E030E040E251E420
S11307500E94070869877A878B879C8769A18984A7
S11307609A84AB84BC8470E060537109882777FD58
S11307708095982F0E945307A50194010E94550665
S113078069877A878B879C870E94500689A389A1F1
S1130790803318F089A18A3398F209A120E0422D10
S11307A0C701B6010E94A4056D817E818F81988561
S11307B029853A854B855C850E94B906882344F5D2
S11307C0CD9B02C03AA201C01AA29AA18BA198178C
S11307D089F08BA181110EC06D817E818F819885F6
S11307E029813A814B815C810E9455066D837E8309
S11307F08F8398878AA18BA36D817E818F81988551
S113080029853A854B855C850E94B9068823C4F204
S113081019861A861B861C861D821E821F821886D4
S11308200E94BC0588C020E030E040E05FE360E067
S113083070E08CE892E40E9433052FE181EA97E0AE
S1130840215080409040E1F700C000002DEC3CECCA
S11308504CEC5EE360E070E08CE892E40E94E50416
S11308602FEB87E299E0215080409040E1F700C0EF
S113087000000E94BC052FE382E49FE021508040E9
S11308809040E1F700C0000060E070E080E89FE382
S11308900E94C40060E070E084EB92E40E940A01CC
S11308A060E070E080E89FE30E94C40060E070E0D4
S11308B084EB92E40E940A0160E070E080E89FE328
S11308C00E94C40060E070E084EB92E40E940A019C
S11308D060E070E080E89FE30E94C40060E070E0A4
S11308E084EB92E40E940A012FE382E49FE021500A
S11308F080409040E1F700C0000020E030E040E09C
S11309005FE360E070E08CE892E40E94E5042FE38A
S113091082E49FE0215080409040E1F700C0000055
S11309200E94BC050E945006082F05C00E94500674
S1130930082F01C0102F1013D1CDD8CCCF930E9413
S11309402507C62F862F0E94DC058C2F0E941106D6
S113095081E00E94A30081E00E94AD00CF91089540
S1130960CF930E942507C62F862F0E94DC058C2F6B
S11309700E94110680E00E94A30080E00E94AD0066
S1130980CF910895CF92DF92EF92FF926B017C0199
S11309900E942507862F0E94DC0520E030E040E01D
S11309A05FE3C701B6010E9407080E942507862F4E
S11309B00E94110681E00E94A30081E00E94AD0024
S11309C0FF90EF90DF90CF9008958F929F92AF9217
S11309D0BF92CF92DF92EF92FF926B017C014901AB
S11309E05A010E942507862F0E94DC05A701960163
S11309F0C501B4010E9407080E942507862F0E94A2
S1130A00110681E00E94A30081E00E94AD00FF90E6
S1130A10EF90DF90CF90BF90AF909F908F9008950C
S1130A20CF92DF92EF92FF926B017C010E94250727
S1130A30862F0E94110620E030E040E05FE3C7010A
S1130A40B6010E9407080E942507862F0E94DC0534
S1130A5081E00E94AD0081E00E94A300FF90EF902E
S1130A60DF90CF9008958F929F92AF92BF92CF92D2
S1130A70DF92EF92FF926B017C0149015A010E94BF
S1130A802507862F0E941106A5019401C701B6010E
S1130A900E9407080E942507862F0E94DC0581E03A
S1130AA00E94AD0081E00E94A300FF90EF90DF90D0
S1130AB0CF90BF90AF909F908F900895CF92DF9288
S1130AC0EF92FF926B017C010E942507862F0E9402
S1130AD0DC0520E030E040E05FE3C701B6010E949E
S1130AE007080E942507862F0E94110680E00E94B5
S1130AF0A30080E00E94AD00FF90EF90DF90CF90C4
S1130B000895CF92DF92EF92FF926B017C010E94D5
S1130B102507862F0E94110620E030E040E05FE3C5
S1130B20C701B6010E9407080E942507862F0E946C
S1130B30DC0580E00E94AD0080E00E94A300FF90ED
S1130B40EF90DF90CF9008951F93CF93DF93142FEE
S1130B50D22F0E942507C62F862F0E94DC058C2FDA
S1130B600E941106812F0E94A3008D2F0E94AD00C8
S1130B70DF91CF911F91089580E00E94DC0580E011
S1130B800E941106089512BE1CBE83B7806483BF01
S1130B9083B7877F83BF83B7806283BF83B78F7E2A
S1130BA083BF83B7826083BF83B78E7F83BF83B7DE
S1130BB08B7F83BFBB9A0895682F70E080E090E03C
S1130BC00E94530720E030E048EC52E40E94BD0646
S1130BD020E030E04FE753E40E94070820E030E0D3
S1130BE040E05FE30E9455060E9425076CBF08950C
S1130BF014BC13BC85B5806485BD85B5877F85BD70
S1130C0085B5806285BD85B58F7E85BD85B58260DD
S1130C1085BD85B58B7F85BD85B58E7F85BD8F9A56
S1130C200895682F70E080E090E00E94530720E070
S1130C3030E048EC52E40E94BD0620E030E04FE78B
S1130C4053E40E94070820E030E040E05FE30E94A4
S1130C5055060E94250763BD08950E94510720E0B0
S1130C6030E040E051E40E9407089B01AC0160E0E1
S1130C7074E284E799E40E94BD0620E030E040E895
S1130C805FE30E9454060E942507599A8AB188613D
S1130C908AB980B5866880BD529869B970BD0895D7
S1130CA05F9BFECF8CB108955058BB27AA270ED066
S1130CB070C161D130F066D120F031F49F3F11F45E
S1130CC01EF456C10EF4E095E7FB4CC1E92F72D136
S1130CD080F3BA17620773078407950718F071F455
S1130CE09EF58AC10EF4E0950B2EBA2FA02D0B01B0
S1130CF0B90190010C01CA01A0011124FF27591B5D
S1130D0099F0593F50F4503E68F11A16F040A22F62
S1130D10232F342F4427585FF3CF469537952795D3
S1130D20A795F0405395C9F77EF41F16BA0B620BD2
S1130D30730B840BBAF09150A1F0FF0FBB1F661F19
S1130D40771F881FC2F70EC0BA0F621F731F841F5C
S1130D5048F4879577956795B795F7959E3F08F082
S1130D60B3CF9395880F08F09927EE0F9795879541
S1130D700895D4D008F481E008950CD00AC102D1BA
S1130D8040F0F9D030F021F45F3F19F0EBC051117D
S1130D9034C1EEC00FD198F39923C9F35523B1F3AD
S1130DA0951B550BBB27AA2762177307840738F0D6
S1130DB09F5F5F4F220F331F441FAA1FA9F333D035
S1130DC00E2E3AF0E0E830D091505040E695001CE9
S1130DD0CAF729D0FE2F27D0660F771F881FBB1FA5
S1130DE0261737074807AB07B0E809F0BB0B802D7F
S1130DF0BF01FF2793585F4F2AF09E3F510568F0CB
S1130E00B1C0FBC05F3FECF3983EDCF38695779569
S1130E106795B795F7959F5FC9F7880F911D9695CC
S1130E20879597F90895E1E0660F771F881FBB1F28
S1130E30621773078407BA0720F0621B730B840BD5
S1130E40BA0BEE1F88F7E0950895BCD088F09F5741
S1130E5090F0B92F9927B751A0F0D1F0660F771F02
S1130E60881F991F1AF0BA95C9F712C0B13081F0E2
S1130E70C3D0B1E00895C0C0672F782F8827B85F2A
S1130E8039F0B93FCCF3869577956795B395D9F743
S1130E903EF490958095709561957F4F8F4F9F4F4D
S1130EA00895E89409C097FB3EF490958095709559
S1130EB061957F4F8F4F9F4F9923A9F0F92F96E9A2
S1130EC0BB279395F695879577956795B795F11117
S1130ED0F8CFFAF4BB0F11F460FF1BC06F5F7F4FB4
S1130EE08F4F9F4F16C0882311F096E911C07723C6
S1130EF021F09EE8872F762F05C0662371F096E8CF
S1130F00862F70E060E02AF09A95660F771F881F9D
S1130F10DAF7880F9695879597F90895990F000841
S1130F20550FAA0BE0E8FEEF16161706E807F907B7
S1130F30C0F012161306E407F50798F0621B730B52
S1130F40840B950B39F40A2661F0232B242B252BD3
S1130F5021F408950A2609F4A140A6958FEF811D76
S1130F60811D089597F99F6780E870E060E0089517
S1130F709FEF80EC089500240A94161617061806AD
S1130F800906089500240A94121613061406050689
S1130F900895092E0394000C11F4882352F0BB0F1A
S1130FA040F4BF2B11F460FF04C06F5F7F4F8F4F7D
S1130FB09F4F089557FD9058440F551F59F05F3FB8
S1130FC071F04795880F97FB991F61F09F3F79F067
S1130FD087950895121613061406551FF2CF4695E9
S1130FE0F1DF08C0161617061806991FF1CF86956B
S1130FF07105610508940895E894BB27662777274F
S1131000CB0197F908958ADF08F48FEF08950BD088
S1131010C0CFB1DF28F0B6DF18F0952309F0A2CFD6
S1131020A7CF1124EACFC6DFA0F3959FD1F3950F84
S113103050E0551F629FF001729FBB27F00DB11D58
S1131040639FAA27F00DB11DAA1F649F6627B00DE8
S1131050A11D661F829F2227B00DA11D621F739FD1
S1131060B00DA11D621F839FA00D611D221F749FDF
S11310703327A00D611D231F849F600D211D822F26
S1131080762F6A2F11249F5750408AF0E1F088236D
S11310904AF0EE0FFF1FBB1F661F771F881F91507A
S11310A05040A9F79E3F510570F05CCFA6CF5F3F3B
S11310B0ECF3983EDCF3869577956795B795F795AD
S11310C0E7959F5FC1F7FE2B880F911D9695879535
S11310D097F90895EE0FFF1F0590F491E02D099400
S10710E0F894FFCFAE
S9030000FC
