S018000070757474696E67546F676574686572312E737265638E
S11300000C942A000C9434000C9434000C943400A6
S11300100C9434000C9434000C9434000C9434008C
S11300200C9434000C9434000C9434000C9434007C
S11300300C9434000C9434000C9434000C9434006C
S11300400C9434000C9434000C9434000C9434005C
S11300500C94340011241FBECFE5D8E0DEBFCDBF21
S11300600E94B2000C9410040C9400008F929F9292
S1130070AF92BF92CF92DF92EF92FF926B017C011D
S113008049015A010E94CB02862F0E948A01A701CE
S11300909601C501B4010E9489030E94CB02862FF8
S11300A00E94BF0181E00E94910081E00E949B00B8
S11300B0FF90EF90DF90CF90BF90AF909F908F9084
S11300C008958F929F92AF92BF92CF92DF92EF9258
S11300D0FF926B017C0149015A010E94CB02862FD9
S11300E00E94BF01A5019401C701B6010E948903C2
S11300F00E94CB02862F0E948A0181E00E949B000D
S113010081E00E949100FF90EF90DF90CF90BF902C
S1130110AF909F908F900895D09AD19AD29AD39A03
S11301200895813019F4D898D99A0895811102C09C
S1130130D89AD9980895813019F4DA98DB9A0895F9
S1130140811102C0DA9ADB9808950E9471010E941D
S1130150A6010E948C0060E875E280E090E00E94B5
S1130160DB010895CF93DF93CDB7DEB729970FB6A0
S1130170F894DEBF0FBECDBF0E94A500D59A8E981D
S11301808D988C988DEC9CECACE0BFE38A839B83C8
S1130190AC83BD838E839F83A887B98709E40F2E20
S11301A0C12CD12CE12CFFE3FF2EF02D17E40F2EF0
S11301B0F6E4BF2EF02D85990CC0849B0AC0869B63
S11301C008C0B98260E070E08CE892E40E945801B3
S11301D0F2CF86992FC0849B2DC08981873429F062
S11301E01983CA82DB82EC82FD822A813B814C81A5
S11301F05D8160E070E08CE892E40E9461006A81B5
S11302007B818C819D812AE939E949E95EE30E9479
S11302108503181684F66A817B818C819D812DEC7F
S11302203CEC4CE45DE30E94FE016A837B838C8397
S11302309D83C1CF869B30C084992EC08981893427
S113024029F00983CE82DF82E886F9862E813F81F8
S11302504885598560E070E08CE892E40E9436009D
S11302606E817F81888599852AE939E949E95EE3C8
S11302700E94850318160CF09ECF6E817F818885BD
S113028099852DEC3CEC4CE45DE30E94FE016E8309
S11302907F83888799878FCF869B07C0859B05C0FE
S11302A0849B03C00E946A0186CF0E946A0183CFA7
S11302B0CF930E94CB02C62F862F0E948A018C2FD7
S11302C00E94BF0181E00E94910081E00E949B0096
S11302D0CF91089580E00E948A0180E00E94BF01CE
S11302E0089512BE1CBE83B7806483BF83B7877F23
S11302F083BF83B7806283BF83B78F7E83BF83B797
S1130300826083BF83B78E7F83BF83B78B7F83BFB6
S1130310BB9A0895682F70E080E090E00E94F90293
S113032020E030E048EC52E40E94630220E030E038
S11303304FE753E40E94890320E030E040E05FE3AC
S11303400E94FF010E94CB026CBF089514BC13BC31
S113035085B5806485BD85B5877F85BD85B580629B
S113036085BD85B58F7E85BD85B5826085BD85B526
S11303708B7F85BD85B58E7F85BD8F9A0895682F47
S113038070E080E090E00E94F90220E030E048EC68
S113039052E40E94630220E030E04FE753E40E94FD
S11303A0890320E030E040E05FE30E94FF010E9407
S11303B0CB0263BD08950E94F70220E030E040E0E4
S11303C051E40E9489039B01AC0160E074E284E77C
S11303D099E40E94630220E030E040E85FE30E9479
S11303E0FE010E94CB02599A8AB188618AB980B50C
S11303F0866880BD529869B970BD08955058BB276E
S1130400AA270ED048C139D130F03ED120F031F4C2
S11304109F3F11F41EF42EC10EF4E095E7FB24C1B6
S1130420E92F4AD180F3BA17620773078407950747
S113043018F071F49EF562C10EF4E0950B2EBA2FFC
S1130440A02D0B01B90190010C01CA01A0011124D6
S1130450FF27591B99F0593F50F4503E68F11A1682
S1130460F040A22F232F342F4427585FF3CF469513
S113047037952795A795F0405395C9F77EF41F1635
S1130480BA0B620B730B840BBAF09150A1F0FF0FFF
S1130490BB1F661F771F881FC2F70EC0BA0F621FEB
S11304A0731F841F48F4879577956795B795F795DB
S11304B09E3F08F0B3CF9395880F08F09927EE0F6D
S11304C09795879508950CD0E6C0DED040F0D5D03E
S11304D030F021F45F3F19F0C7C0511110C1CAC0F8
S11304E0EBD098F39923C9F35523B1F3951B550B1E
S11304F0BB27AA2762177307840738F09F5F5F4FF3
S1130500220F331F441FAA1FA9F333D00E2E3AF033
S1130510E0E830D091505040E695001CCAF729D04D
S1130520FE2F27D0660F771F881FBB1F261737079C
S11305304807AB07B0E809F0BB0B802DBF01FF27CC
S113054093585F4F2AF09E3F510568F08DC0D7C085
S11305505F3FECF3983EDCF3869577956795B79506
S1130560F7959F5FC9F7880F911D9695879597F921
S11305700895E1E0660F771F881FBB1F621773079A
S11305808407BA0720F0621B730B840BBA0BEE1FAF
S113059088F7E095089598D088F09F5790F0B92F88
S11305A09927B751A0F0D1F0660F771F881F991FC4
S11305B01AF0BA95C9F712C0B13081F09FD0B1E0FA
S11305C008959CC0672F782F8827B85F39F0B93F0A
S11305D0CCF3869577956795B395D9F73EF49095C6
S11305E08095709561957F4F8F4F9F4F0895E89444
S11305F009C097FB3EF490958095709561957F4F67
S11306008F4F9F4F9923A9F0F92F96E9BB27939514
S1130610F695879577956795B795F111F8CFFAF424
S1130620BB0F11F460FF1BC06F5F7F4F8F4F9F4F55
S113063016C0882311F096E911C0772321F09EE8B3
S1130640872F762F05C0662371F096E8862F70E019
S113065060E02AF09A95660F771F881FDAF7880FF3
S11306609695879597F9089597F99F6780E870E0C4
S113067060E008959FEF80EC089500240A94161614
S1130680170618060906089500240A94121613067C
S1130690140605060895092E0394000C11F488230A
S11306A052F0BB0F40F4BF2B11F460FF04C06F5F26
S11306B07F4F8F4F9F4F089557FD9058440F551FFC
S11306C059F05F3F71F04795880F97FB991F61F0D0
S11306D09F3F79F087950895121613061406551F47
S11306E0F2CF4695F1DF08C0161617061806991FB3
S11306F0F1CF86957105610508940895E894BB27A8
S113070066277727CB0197F9089566D008F48FEF11
S113071008950BD0C0CFB1DF28F0B6DF18F09523D1
S113072009F0A2CFA7CF1124EACFC6DFA0F3959F8B
S1130730D1F3950F50E0551F629FF001729FBB27C4
S1130740F00DB11D639FAA27F00DB11DAA1F649F70
S11307506627B00DA11D661F829F2227B00DA11D23
S1130760621F739FB00DA11D621F839FA00D611DA9
S1130770221F749F3327A00D611D231F849F600DCA
S1130780211D822F762F6A2F11249F5750408AF003
S1130790E1F088234AF0EE0FFF1FBB1F661F771F8F
S11307A0881F91505040A9F79E3F510570F05CCFCF
S11307B0A6CF5F3FECF3983EDCF38695779567957B
S11307C0B795F795E7959F5FC1F7FE2B880F911DAD
S11307D09695879597F90895990F0008550FAA0BD8
S11307E0E0E8FEEF16161706E807F907C0F0121640
S11307F01306E407F50798F0621B730B840B950B43
S113080039F40A2661F0232B242B252B21F4089597
S11308100A2609F4A140A6958FEF811D811D089534
S1070820F894FFCF76
S9030000FC
