:100000000C943C000C9446000C9446000C94460062
:100010000C9446000C9446000C9446000C94460048
:100020000C9446000C9446000C9446000C94460038
:100030000C9446000C9446000C9446000C94460028
:100040000C9446000C9446000C9446000C94460018
:100050000C944600270113011301130120012E0106
:100060003C01350143011301130113011301130175
:100070001301130113014A0111241FBECFE5D8E07B
:10008000DEBFCDBF0E9411010C94E5020C9400006C
:10009000D098D198D298D3980895813019F4D098F7
:1000A000D19A0895D09AD1980895813019F4D298B0
:1000B000D39A0895D29AD3980895CF92DF92EF926F
:1000C000FF926B017C010E946601C701B6010E948C
:1000D000760181E00E944D0081E00E945500FF9072
:1000E000EF90DF90CF900895CF92DF92EF92FF9242
:1000F0006B017C010E946601C701B6010E94760176
:1001000080E00E944D0080E00E945500FF90EF903B
:10011000DF90CF900895CF92DF92EF92FF926B0124
:100120007C010E94660120E030E040E05FE3C7010F
:10013000B6010E947C020E94760181E00E944D007F
:1001400081E00E945500FF90EF90DF90CF900895DE
:10015000CF92DF92EF92FF926B017C010E947601B9
:1001600020E030E040E05FE3C701B6010E947C027E
:100170000E94660181E00E94550081E00E944D00CE
:10018000FF90EF90DF90CF900895CF92DF92EF92A3
:10019000FF926B017C010E94660120E030E040E0AC
:1001A0005FE3C701B6010E947C020E94760180E0F5
:1001B0000E944D0080E00E945500FF90EF90DF907C
:1001C000CF900895CF92DF92EF92FF926B017C0166
:1001D0000E94760120E030E040E05FE3C701B60115
:1001E0000E947C020E94660180E00E94550080E02F
:1001F0000E944D00FF90EF90DF90CF90089560E057
:1002000070E0CB010E94660180E00E9455000895D5
:1002100080E895E20E9486010E944D010E944800FC
:1002200008950E9408010E94960190E0FC01E254AA
:10023000F109E231F105B8F7E65DFF4F0C94DF02FA
:1002400060E070E080E89FE30E945D00ECCF60E03A
:1002500070E080E89FE30E947400E5CF60E070E00A
:1002600080E89FE30E94A800DECF60E070E080E8B5
:100270009FE30E948B00D7CF60E070E080E89FE3AF
:100280000E94E200D0CF60E070E080E89FE30E942F
:10029000C500C9CF0E94FF00C6CF12BE1CBE83B7E7
:1002A000806483BF83B7877F83BF83B7806283BF48
:1002B00083B78F7E83BF83B7826083BF83B78E7F10
:1002C00083BF83B78B7F83BFBB9A089520E030E064
:1002D0004FE753E40E947C0220E030E040E05FE31F
:1002E0000E949B010E94FF016CBF089520E030E056
:1002F0004FE753E40E947C0220E030E040E05FE3FF
:100300000E949B010E94FF0163BD0895549A539A75
:1003100080B5806880BD529880B5826080BD80B510
:10032000846080BD85E089B910BC08955F9BFECFD5
:100330008CB108955058BB27AA270ED0A3C094D0E3
:1003400030F099D020F031F49F3F11F41EF489C0B1
:100350000EF4E095E7FB7FC0E92FA5D080F3BA1734
:10036000620773078407950718F071F49EF5BDC006
:100370000EF4E0950B2EBA2FA02D0B01B9019001C0
:100380000C01CA01A0011124FF27591B99F0593F04
:1003900050F4503E68F11A16F040A22F232F342F4C
:1003A0004427585FF3CF469537952795A795F0409A
:1003B0005395C9F77EF41F16BA0B620B730B840BAF
:1003C000BAF09150A1F0FF0FBB1F661F771F881F67
:1003D000C2F70EC0BA0F621F731F841F48F48795BF
:1003E00077956795B795F7959E3F08F0B3CF9395AE
:1003F000880F08F09927EE0F9795879508955BD0A1
:1004000088F09F5790F0B92F9927B751A0F0D1F0FD
:10041000660F771F881F991F1AF0BA95C9F712C087
:10042000B13081F062D0B1E008955FC0672F782FBE
:100430008827B85F39F0B93FCCF3869577956795F3
:10044000B395D9F73EF490958095709561957F4F5F
:100450008F4F9F4F089597F99F6780E870E060E0A5
:1004600008959FEF80EC089500240A94161617064D
:1004700018060906089500240A9412161306140695
:1004800005060895092E0394000C11F4882352F0F8
:10049000BB0F40F4BF2B11F460FF04C06F5F7F4FB0
:1004A0008F4F9F4F089557FD9058440F551F59F097
:1004B0005F3F71F04795880F97FB991F61F09F3F51
:1004C00079F087950895121613061406551FF2CF7A
:1004D0004695F1DF08C0161617061806991FF1CFCA
:1004E00086957105610508940895E894BB276627F1
:1004F0007727CB0197F908950BD0C4CFB5DF28F04B
:10050000BADF18F0952309F0A6CFABCF1124EECFB8
:10051000CADFA0F3959FD1F3950F50E0551F629F5E
:10052000F001729FBB27F00DB11D639FAA27F00D4C
:10053000B11DAA1F649F6627B00DA11D661F829F73
:100540002227B00DA11D621F739FB00DA11D621F58
:10055000839FA00D611D221F749F3327A00D611D75
:10056000231F849F600D211D822F762F6A2F112457
:100570009F5750408AF0E1F088234AF0EE0FFF1FAA
:10058000BB1F661F771F881F91505040A9F79E3FE1
:10059000510570F060CFAACF5F3FECF3983EDCF3DB
:1005A000869577956795B795F795E7959F5FC1F71E
:1005B000FE2B880F911D9695879597F90895EE0F5C
:0E05C000FF1F0590F491E02D0994F894FFCFF1
:00000001FF
